:100000001FC009C208C207C206C205C204C203C299
:1000100002C201C200C2FFC1FEC1FDC1FCC1FBC1E1
:10002000FAC1F9C1F8C1F7C1F6C1F5C1F4C1F3C114
:10003000F2C1F1C13E003E41803E413E81000418C4
:1000400011241FBECFEFCDBFDFE3DEBFE4E3F0E05E
:1000500040E017C0B591A59135912591059107FD17
:100060000CC095918591EF01F92FE82F05900D9225
:10007000A217B307D9F7FE0104C01D92A217B30758
:10008000E1F7E034F40731F783D000C0F894FFCFF4
:10009000008040C020A060E0109050D030B070F0E0
:1000A000088848C828A868E8189858D838B878F850
:1000B000048444C424A464E4149454D434B474F480
:1000C0000C8C4CCC2CAC6CEC1C9C5CDC3CBC7CFCF0
:1000D000028242C222A262E2129252D232B272F280
:1000E0000A8A4ACA2AAA6AEA1A9A5ADA3ABA7AFAF0
:1000F000068646C626A666E6169656D636B676F620
:100100000E8E4ECE2EAE6EEE1E9E5EDE3EBE7EFE8F
:10011000018141C121A161E1119151D131B171F14F
:10012000098949C929A969E9199959D939B979F9BF
:10013000058545C525A565E5159555D535B575F5EF
:100140000D8D4DCD2DAD6DED1D9D5DDD3DBD7DFD5F
:10015000038343C323A363E3139353D333B373F3EF
:100160000B8B4BCB2BAB6BEB1B9B5BDB3BBB7BFB5F
:10017000078747C727A767E7179757D737B777F78F
:100180000F8F4FCF2FAF6FEF1F9F5FDF3FBF7FFFFF
:100190003DD180E198E02DD18FE097E20197F1F712
:1001A00000C000008CE577D08FE097E20197F1F76F
:1001B00000C00000C0E001C0C0E09FE72AE186E087
:1001C000915020408040E1F700C0000080E010C066
:1001D000E82FEC0FE03208F0E052282F30E0F0E09A
:1001E000E856FC479081F901E050F24C90838F5F14
:1001F000803270F320E019C0822F90E0EEE1F0E051
:10020000E81BF90BDC01A050B24C3C91E05EF14CD4
:100210003083EFE1F0E0E81BF90BDC01AF5FB14C9C
:100220008C91E05EF14C80832E5F203228F368ECE5
:1002300080E29EE34CD06EEC80E09EE348D06AEC16
:1002400081E69EE344D06CEC81E49EE340D0CE5F37
:08025000C03208F0B1CFB1CFBC
:10025800EF92FF920F931F93CF93DF937C018B0153
:10026800D42FC0E00AC0D801ED918D01F0E0E0572D
:10027800FF476081C7015CD0CF5FCD17A0F380E056
:0E028800DF91CF911F910F91FF90EF9008959D
:10029600CF93C82F482F63E881E364D04C2F60E0EA
:1002A60080E360D04C2F61E086E35CD04C2F60E2A7
:1002B60087E358D04C2F60E084E354D04C2F63E0A2
:0802C60085E350D0CF910895AB
:1002CE00CF93DF93EC0140E080E198E015D08111EF
:1002DE000DC060E880E198E028D060E080E198E011
:1002EE0024D040E2BE0180E198E0AFDF80E198E0EB
:0802FE006BD0DF91CF91089550
:10030600FC01442319F06160678302C06E7F678336
:100316009581907CE9F39581892F807194FF08C0BF
:1003260085818068858385818064858381E0858376
:02033600089528
:10033800CF93DF93EC0168878D818C7FE9F3CE0141
:1003480037D09D81892F807194FF08C08D81806886
:100358008D838D8180648D8381E08D83DF91CF9142
:020368000895F6
:10036A00CF93DF93D82FC62F642F40E080E198E027
:10037A00C5DF6D2F80E198E0DADF6C2F80E198E02D
:0E038A00D6DF80E198E022D0DF91CF91089578
:100398000000000000000000000000000000000055
:1003A8000180024004200810100820044002FFFFCA
:1003B800FC01858182FD05C09581892F887093FF96
:0E03C80005C081E0858383E084838FEF089574
:1003D600CF93DF93EC018D818C7FE9F3CE01E9DFCA
:0C03E60083E08C8380E0DF91CF910895CC
:1003F200FC0184E0868384818161848383818160BE
:0A040200838381E0858380E0089584
:0A040C0088ED84BF1092610008958E
:02041600F4CD23
:10041800FF0000FF00000000FF0000FF00000000D8
:10042800FF0000FF00000000FF0000FF00000000C8
:1004380080402010080402018040201008040201B6
:1004480080402010080402018040201008040201A6
:00000001FF
