:1000000087C3A1C3A0C39FC39EC39DC39CC39BC3FF
:100010009AC399C398C397C396C395C394C393C314
:1000200092C391C390C38FC38EC38DC38CC38BC344
:100030008AC389C304000000050000000600000018
:1000400000000000000000000000000000000000B0
:1000500000000000000000000000000000000000A0
:100060000000000000000000000000000000000090
:100070000000000000000000000000000000000080
:100080000000000000000000000000000000000070
:100090000000000000000000000000000000000060
:1000A0000000000000000000000000000000000050
:1000B0000000000000000000000000000000000040
:1000C0000000000000000000000000000000000030
:1000D0000000000000000000000000000000000020
:1000E000000000000000000000C00500004000000B
:1000F0000000060000800500004005000000000030
:1001000000000000000000000000000000000000EF
:1001100000000000000000000000000000000000DF
:1001200000000000000000000000000000000000CF
:1001300000000000000000000000000000000000BF
:1001400000000000000000000000000000000000AF
:10015000000000000000000000000000000000009F
:100160000000000000C003000000000000F00F00CD
:100170000000000000FC3F000000000000F00F0045
:100180000000000000C003000000000000000000AC
:10019000000000000000000000000000000000005F
:1001A000000000000000000000000000000000004F
:1001B000000000000000000000000000000000003F
:1001C000000000000000000000000000000000002F
:1001D000000000000000000000000000000000001F
:1001E000000003000000050000080D00000C0200E4
:1001F00000120000000E00000000000000003800A7
:1002000000002400002018000058080000500000E2
:10021000006000000000000000000000000000007E
:1002200000000000000000000000000000000000CE
:1002300000000000000000000000001700000003A4
:100240000003000A1F0A1F0A12151F1509130B04C9
:100250001A190D121508140000030000000E1100F9
:10026000000000110E00000502050004041F040434
:100270000010080000040404040400181800001012
:10028000080402010E1115110E00121F1000001DAE
:10029000151517001115150E000704041F0017157A
:1002A0001509001F15151D0003190503000A151572
:1002B0000A000215150E000012000000081A0000C6
:1002C00000040A1100000A0A0A0A00110A040000C8
:1002D000011505020E11150506001F05051F001F5B
:1002E00015150E000E11110A001F11110E001F1519
:1002F0001511001F050501000E11151D001F040436
:100300001F00111F1100001810101F001F040A11F8
:10031000001F1010101F020C021F001F060C1F00F0
:100320000E11110E001F050502000E15191E001FEB
:10033000050D12001215150901011F0101000F1012
:10034000100F030C100C030F100C100F110A040AED
:100350001101021C02010019151311001F111100D7
:1003600001020408100011111F0000020102001018
:1003700010101010000102000000081A1A1C001FC3
:10038000141408000C121212000814141F000C168A
:10039000161400041E0501000C121A08001F0404A4
:1003A000180014141D10001810101D001F080C1048
:1003B00000111F10001E021E021C001E02021C0063
:1003C0000C12120C001E0A0A0400040A0A1E001C69
:1003D00002020200141E1A0A00040F1410000E106C
:1003E000101E00061818060E100E100E00120C0C2F
:1003F000120002141C0200121A161200041F11111E
:1004000000001F00000011111F0400010302020080
:100410000000000040000000E0000000400000007C
:100420000000000000000000FEFF00FE010001814E
:1004300000000280800402800C000280004C1A80C0
:100440004012269C402222A410C221C4800220888F
:10045000042148F000314DC0600D70800CAD7580F6
:1004600000E227C000041020FFFF0F3E25C804C192
:100470001838030000000000000000000000080021
:1004800000001C0000000800000000000000000048
:1004900000000000010000800300000001000000D7
:1004A0000000000000000000FEFF00FE01000181CE
:1004B00000000280800402800C000280005832801C
:1004C00040244A804044468810844394800440E499
:1004D0000442909800629AE0601AE0800C5AEB8027
:1004E00000C44F8001082040FEFF1F7E25C8048104
:1004F00018300300000000000000000000100000A1
:1005000000380000001000000000000000000000A3
:1005100000000002000000070000000200000000D0
:100520000000000000000001FEFF00FE010001804D
:1005300000000280800402800C000280005832809B
:1005400040244A804044468010844380800440F820
:100550000442908400629AE4601AE0980C5AEB809E
:1005600000C44F80000820BBFFFF1FC452A014002E
:1005700021400800000000000000000020000000F2
:1005800070000000200000000000000000000000DB
:1005900000000000000040000000E00000004000FB
:1005A0000000000000000001FEFF00FE01000180CD
:1005B00000000280800402800C000280005832801B
:1005C00040244A804044468010844380800440E0B8
:1005D0000442909800629AE4601AE0940C5AEB8806
:1005E00000C44F800108305BFEFF0F6449500A8051
:1005F000302004000000000000000040000000E087
:1006000000000040000000000000000000000000AA
:100610000000000000000100008003000000010055
:1006200000000000000000FEFFFF0001010001804B
:1006300000000280800402800C000280004C1A80BE
:10064000401226804022229C10C221E28002209C7F
:10065000042148E000314D80600D70800CAD758044
:1006600000E227E00004189EFFFF075112A40220B9
:100670000C18010000000000000000010000000351
:100680000000000100000000000000000000000069
:100690000000000000080000001C0000000800002E
:1006A00000000000000000FEFFFF000101000180CB
:1006B00000000280800402800C0C1A800052268008
:1006C0004022228840C22194100220E480214898D0
:1006D00004314DE0000D708060AD75800CE2278024
:1006E000000418200108069EFFFF03510A9402200F
:1006F000040801000000000000000000000080006D
:100700000000C000000080000000000000000000A9
:1007100011241FBECFEFCDBFDFE3DEBF1EE3A0E09D
:10072000BEE3E4EDF7E102C005900D92A432B107FB
:10073000D9F72FE3A4E2BEE301C01D92A433B207B0
:10074000E1F701D710C85CCCFC0184E0868384818A
:100750008161848383818160838381E0858380E0FC
:100760000895FC01858182FD05C09581892F8870DF
:1007700093FF05C081E0858383E084838FEF089534
:10078000FC01442319F06160678302C06E7F6783B8
:100790009581907CE9F39581892F807194FF08C041
:1007A00085818068858385818064858381E08583F8
:1007B0000895CF93DF93EC0168878D818C7FE9F3F7
:1007C000CE01CFDF9D81892F807194FF08C08D817C
:1007D00080688D838D8180648D8381E08D83DF913E
:1007E000CF910895CF93DF93EC018D818C7FE9F356
:1007F000CE01B7DF83E08C8380E0DF91CF91089555
:10080000CF93DF93D82FC62F642F40E080E198E08C
:10081000B7DF6D2F80E198E0CCDF6C2F80E198E0AE
:10082000C8DF80E198E0DEDFDF91CF910895CF93BC
:10083000DF93C82FD62F482F63E881E3E1DF4C2FE9
:1008400060E080E3DDDF4C2F61E086E3D9DF4C2FF1
:100850006D2F87E3D5DF4C2F60E084E3D1DF4C2F91
:1008600063E085E3CDDFDF91CF91089588ED84BF0C
:10087000109261000895E0E4F1E01086118617827D
:1008800089E2808308958091009A811119C0809136
:10089000019A80932D3E8091029A80932E3E809102
:1008A000039A8093B23E8091049A8093B33EE0E035
:1008B000FAE985818093AF3E86818093243E089536
:1008C00084E080932D3E1092B03E10922C3E109208
:1008D0002E3E82E08093B23E1092B33E1092243EB0
:1008E000089594E08DE984BF9093001080910210E8
:1008F0008370E1F71092009A80912D3E8093019AC7
:1009000080912E3E8093029A8091B23E8093039A0A
:100910008091B33E8093049A8091AF3E8093059A74
:100920008091243E8093069A93E08DE984BF909352
:100930000010809102108370E1F70895FF920F93E9
:100940001F93CF93DF938C0140E068EC80E198E047
:1009500017DF81111FC060E880E198E02ADF60E0C6
:1009600080E198E026DFF12C12C0CF2DD0E0F80115
:10097000EC0FFD1F608180E198E01BDF2196C00F26
:10098000D11F688180E198E014DF84E0F80E8DE3E8
:100990008F1558F780E198E025DF40E06AEC80E1B0
:1009A00098E0EEDE811121C060E880E198E001DF8F
:1009B00060E080E198E0FDDE6894FF24F1F812C069
:1009C000CF2DD0E0F801EC0FFD1F608180E198E0B1
:1009D000F0DE2196C00FD11F688180E198E0E9DE4A
:1009E00084E0F80E8FE38F1558F780E198E0FADE87
:1009F00040E06CEC80E198E0C3DE811121C060E84A
:100A000080E198E0D6DE60E080E198E0D2DE689494
:100A1000FF24F6F812C0CF2DD0E0F801EC0FFD1F37
:100A2000608180E198E0C5DE2196C00FD11F68810A
:100A300080E198E0BEDE84E0F80E8DE78F1558F770
:100A400080E198E0CFDE40E06EEC80E198E098DE57
:100A5000811121C060E880E198E0ABDE60E080E1D8
:100A600098E0A7DE0F2EF2E4FF2EF02D12C0CF2D5E
:100A7000D0E0F801EC0FFD1F608180E198E099DE85
:100A80002196C00FD11F688180E198E092DE84E05A
:100A9000F80EFF2064F780E198E0A4DEDF91CF91AB
:100AA0001F910F91FF900895CF93E82FF0E0DF01A1
:100AB000159691970CF072C070E0DB011596919736
:100AC0000CF06CC0660F771F62957295707F762769
:100AD000607F76276E0F7F1F759567957595679573
:100AE00075956795562F877090EE940F903608F0A5
:100AF00040E24052C0E04FC0642F70E0FB01EE0FB7
:100B0000FF1FEE0FFF1FE60FF71FEC0FF11DEC5C50
:100B1000FD4FE49190E037C0692F70E0AE2FB0E058
:100B2000092E02C0B595A7950A94E2F7A0FF15C05B
:100B3000DB01AA0FBB1FAA0FBB1FA50FB11DA20F80
:100B4000B31F61E070E0082E02C0660F771F0A94A1
:100B5000E2F77C91672B6C9315C0DB01AA0FBB1FDA
:100B6000AA0FBB1FA50FB11DA20FB31F61E070E05C
:100B7000082E02C0660F771F0A94E2F760957C91F9
:100B800067236C939F5F953038F28F5F883010F049
:100B90005F5F80E0CF5FC53008F4AECFCF9108959E
:100BA000DF92EF92FF920F931F93CF93DF93D82F93
:100BB000D62E8A017901C0E006C097016D2D8D2FD8
:100BC00073DFCF5FDB5FF801EC0FF11D4081411156
:100BD000F4CFDF91CF911F910F91FF90EF90DF90B5
:100BE000089590E008C0E091023EF091033EE90FC5
:100BF000F11D80839F5F9923B4F70895CF93DF930E
:100C0000CDB7DEB72A97CDBFDEBF8AE0EAE6F7E9C7
:100C1000DE01119601900D928A95E1F780E0E1DF07
:100C20008091B03E823009F456C028F4882369F0E0
:100C3000813071F102C1883009F4BAC0803109F401
:100C4000DAC0843009F0F9C078C02091023E3091BA
:100C5000033E44E757E960E080E0A2DF2091023ED6
:100C60003091033E49E757E966E080E099DF8091E3
:100C70002D3E2091023E3091033EE1E0F0E0EC0F8A
:100C8000FD1FE80FF11D40816CE080E00DDFD5C055
:100C90002091023E3091033E40E857E960E080E059
:100CA0007FDF2091023E3091033E46E857E966E03F
:100CB00080E076DF8091B23E2091023E3091033E8B
:100CC000E1E0F0E0EC0FFD1FE80FF11D40816CE06A
:100CD00080E0EADEB2C02091023E3091033E4DE852
:100CE00057E960E080E05CDF2091023E3091033EF6
:100CF00042E957E966E080E053DF80912E3E8111A2
:100D000009C02091023E3091033E47E957E96CE06B
:100D100047DF93C02091023E3091033E4DE857E9F2
:100D20006CE080E03DDF2091023E3091033E4EE9D1
:100D300057E962E180E034DF80C02091023E3091CB
:100D4000033E42EA57E960E080E02ADF2091023E5C
:100D50003091033E47EA57E966E080E021DF809169
:100D6000B33E81111BC02091023E3091033E4DEAFB
:100D700057E96CE015DF2091023E3091033E44EBD1
:100D800057E962E180E00CDF2091023E3091033EA2
:100D900047EB57E968E180E003DF4FC02091023E56
:100DA0003091033E4DEB57E96CE080E0F9DE45C041
:100DB0002091023E3091033E42EC57E960E080E032
:100DC000EFDE2091023E3091033E49EC57E966E0A8
:100DD00080E0E6DE8091AF3E2091023E3091033EFE
:100DE000E1E0F0E0EC0FFD1FE80FF11D40816CE049
:100DF00080E05ADE22C02091023E3091033E4FEC4B
:100E000057E960E080E0CCDE2091023E3091033E65
:100E100049EC57E966E080E0C3DE8091B13E209165
:100E2000023E3091033EE1E0F0E0EC0FFD1FE80FE1
:100E3000F11D40816CE080E037DE8091023E9091B0
:100E4000033E7CDD2A96CDBFDEBFDF91CF910895B2
:100E50008FE29EE38093023E9093033E84EB9EE3F9
:100E60008093003E9093013E90E01AC08091243E12
:100E70008091AF3E292F30E0A091023EB091033E19
:100E8000A20FB31F8091AF3E837040E8849FF001B2
:100E90001124EC5CFF4FE20FF31FE491EC939F5F92
:100EA000992324F78091023E9091033E47DD1092F2
:100EB0002B3E0895E091B23EF0E0EE0FFF1FEC5F95
:100EC000F14C608171818CE5B2DC8091023E9091A1
:100ED000033E34DD08958031A1F120F4883009F417
:100EE000ABC0FCC0803221F0803409F453C0F6C09E
:100EF0008091B03E8230A9F028F4882351F08130EF
:100F000061F01DC08830A9F08031B9F08430B9F4A7
:100F10000CC081E08093B03E12C082E08093B03E6E
:100F20000EC084E08093B03E0AC088E08093B03E5B
:100F300006C080E18093B03E02C01092B03E5EDEFB
:100F400008958091B03E8230A1F028F4882351F0BA
:100F5000813061F01DC08830A1F08031B1F0843063
:100F6000B9F40BC080E18093B03E12C01092B03E45
:100F70000FC081E08093B03E0BC082E08093B03E12
:100F800007C084E08093B03E03C088E08093B03E09
:100F900035DE08958091B03E823019F128F488231F
:100FA00059F0813099F046C0883089F18031C9F11B
:100FB000843009F03FC020C080912D3E8730D0F5AD
:100FC00080912D3E8F5F80932D3E34C08091B23E44
:100FD000873028F48091B23E8F5F8093B23E6ADF03
:100FE00029C080912E3E811104C081E080932E3E65
:100FF00021C010922E3E1EC08091B33E811104C0CC
:1010000081E08093B33E16C01092B33E13C080912E
:10101000AF3E873078F48091AF3E8F5F8093AF3ED4
:1010200009C08091B13E873028F48091B13E8F5F36
:101030008093B13EE3DD08958091B03E823019F196
:1010400028F4882359F0813099F046C0883089F11E
:101050008031C9F1843009F03FC020C080912D3E1D
:101060008823D1F180912D3E815080932D3E34C054
:101070008091B23E882329F08091B23E81508093C6
:10108000B23E18DF29C080912E3E811104C081E05C
:1010900080932E3E21C010922E3E1EC08091B33E02
:1010A000811104C081E08093B33E16C01092B33E1C
:1010B00013C08091AF3E882379F08091AF3E81507C
:1010C0008093AF3E09C08091B13E882329F0809182
:1010D000B13E81508093B13E91DD08958091B03E44
:1010E000803121F482E080932C3E089510922C3EB2
:1010F000F8DBAEDE0895803229F128F48830B1F0B3
:10110000803159F108958038C9F1813889F18034EE
:1011100009F049C08091B23E873028F48091B23EF8
:101120008F5F8093B23EC6DEDCDB08958091B23ED5
:10113000882329F08091B23E81508093B23EBADE7E
:10114000D0DB089580912D3E873028F480912D3E8C
:101150008F5F80932D3EC5DB089580912D3E8823BF
:1011600029F080912D3E815080932D3EBADB089569
:1011700081E080932C3E87DB41DD089580912E3EF7
:10118000811111C08091AF3E8F5F8093AF3E8091FF
:10119000AF3E883010F01092AF3E8091AF3E80930A
:1011A000B13E9FDB55DE089590912C3E992319F0B6
:1011B000913019F008959FDF08958DDE0895EF9224
:1011C000FF920F931F93CF93DF9320E030E011E065
:1011D00083C11092253E2032310508F45CC0F9012C
:1011E000B097E901CF71DD272097F9F0790101E28D
:1011F000E01AF108A70156954795569547955695DB
:101200004795480F591FDA014C91D701A770BB27AA
:1012100050E002C055954795AA95E2F740FF05C0FA
:101220004091253E4F5F4093253EDF01B695A7953F
:10123000B695A795B695A795A80FB91F4C91E770DD
:10124000FF2750E002C055954795EA95E2F740FF29
:1012500005C04091253E4F5F4093253E6F97D8F4DF
:10126000F9017F97DF01B695A795B695A795B69535
:10127000A795A80FB91F4C91E770FF2750E002C057
:1012800055954795EA95E2F740FF05C04091253E08
:101290004F5F4093253EF901EF71FF273097D9F05A
:1012A000D9011197ED01D695C795D695C795D695D5
:1012B000C795C80FD91F4881A770BB2750E002C04F
:1012C00055954795AA95E2F740FF05C04091253E08
:1012D0004F5F4093253EEF31F105D8F4D9011196C7
:1012E000ED01D695C795D695C795D695C795C80FE4
:1012F000D91F4881A770BB2750E002C0559547957C
:10130000AA95E2F740FF05C04091253E4F5F40930C
:10131000253E203EB3E03B0708F059C0D901909626
:101320003097F9F07901CFE1EC0EF11CA701569549
:1013300047955695479556954795480F591FEA0189
:101340004881E701C770DD2750E002C055954795F9
:10135000CA95E2F740FF05C04091253E4F5F40939C
:10136000253EED01D695C795D695C795D695C795D7
:10137000C80FD91F4881A770BB2750E002C0559500
:101380004795AA95E2F740FF05C04091253E4F5F83
:101390004093253E7F97D8F4F901B196DF01B695C9
:1013A000A795B695A795B695A795A80FB91F4C9187
:1013B000E770FF2750E002C055954795EA95E2F7A0
:1013C00040FF05C04091253E4F5F4093253E409130
:1013D000253E433011F5F901F695E795F695E79529
:1013E000F695E795E60FF71FC081790147E0E42203
:1013F000FF24AC2FB0E00E2C02C0B595A7950A943F
:10140000E2F7A0FF10E041E050E002C0440F551F9A
:10141000EA94E2F74C2B40835DC04091253E423078
:1014200020F04091253E443010F1F901F695E79502
:10143000F695E795F695E795E60FF71FA081E90188
:10144000C770DD274A2F50E00C2E02C055954795F6
:101450000A94E2F740FD10E041E050E002C0440F82
:10146000551FCA95E2F740954A23408333C0A9012E
:10147000569547955695479556954795FC01E40F27
:10148000F51FE081D901A770BB27F0E00A2E02C04A
:10149000F595E7950A94E2F7E0FF0EC0FB01E40F33
:1014A000F51F41E050E002C0440F551FAA95E2F736
:1014B0005081452B40830EC0FB01E40FF51F41E036
:1014C00050E002C0440F551FAA95E2F740955081A5
:1014D000452340832F5F3F4F211544E0340708F434
:1014E00078CE812FDF91CF911F910F91FF90EF90D8
:1014F000089520E015C0822F90E0A091023EB091A7
:10150000033EA80FB91FE091263E30E8E39FF001AB
:101510001124E15FFB4FE80FF91FE491EC932F5F7B
:1015200022234CF78091023E9091033E07DA80918E
:10153000263E8F5F8093263E8091263E863010F0B7
:101540001092263E08958FE29EE38093023E909390
:10155000033EE0E0F4E088EF828388E8878B868BA7
:10156000858B848B838B82D986D980E198E0ECD8F7
:101570008AD98FE097E20197F1F700C000006091EF
:10158000083E7091093E8CE552D98FE097E20197B1
:10159000F1F700C000008FEF24DB8091023E9091B4
:1015A000033ECCD99FEF28E08DE39150204080404E
:1015B000E1F700C0000080E014DB8091023E9091D2
:1015C000033EBCD945DC80914801909149010A97BE
:1015D000D0F3109248011092490180912B3E8F5F09
:1015E00080932B3E80912B3E90E0E0912D3EF0E0E9
:1015F000EE0FFF1FEC5EF14C2081318182179307C3
:101600000CF442C010922B3E80912C3E81113CC0C4
:1016100080912E3E811137C06091003E7091013E55
:101620008091023E9091033ECADD882331F0809183
:10163000B33E811102C00CDC27C08091003E909126
:10164000013E8F529E4369F484EB9EE38093003EFB
:101650009093013E8FE29EE38093023E9093033E7F
:101660000CC08FE29EE38093003E9093013E84EB9A
:101670009EE38093023E9093033E8091023E9091C0
:10168000033E5CD901C035DF8091283E811111C035
:1016900080910804887F69F08091273E811109C0FC
:1016A00080910804887F8093283E10922A3E1092F1
:1016B000273E8091283E882381F09091283E80919A
:1016C0000804887F891309C08091273E811105C0D5
:1016D00080912A3E8F5F80932A3E80910804887F04
:1016E00089F48091273E882369F08091283E8038D4
:1016F00009F45ADD1092283E10922A3E1092293E9B
:101700001092273E80912A3E8530E8F08091283E55
:101710008823C9F08091283E8093273E8091273E00
:10172000887729F08091283E3FDD1092283E8091F5
:10173000273E803841F48091293E853620F081E8AB
:1017400033DD1092283E8091273E882309F43BCF59
:101750008091293E8F3F09F436CF8091293E8F5FDB
:101760008093293E30CFF894FFCF30313233343577
:101770003637383947616D650053706565643A00E6
:101780004C69676874004C6576656C3A004E796107
:101790006E004361743A004E6F726D616C0043617C
:1017A00074004C6F6F70004D6F64653A0052657045
:1017B000656174006F6E005374616C6C0053746FDC
:1017C000700053656C65637400536C6F743A004528
:1017D00064697400B43E2F3E0800180020002F00FA
:1017E00040004F008000A00064004B003200280041
:1017F00014000A0005000200FFFFFFFFFFFFFFFFCC
:10180000FFFFFFFFFFFFFFFFFFFFFFFFFFFFFFFFE8
:10181000FFFFFFFFFFFFFFFFFFFFFFFFFFFFFFFFD8
:10182000FFFFFFFFFFFFFFFFFFFFFFFFFFFFFFFFC8
:10183000FFFFFFFFFFFFFFFFFFFFFFFFFFFFFFFFB8
:00000001FF
